:020000040800F2
:100000000000022079070008C9070008C907000896
:10001000C9070008C9070008C90700080000000058
:10002000000000000000000000000000C9070008F8
:10003000C907000800000000C9070008CB07000836
:10004000C9070008C9070008C90700089D1D000866
:10005000C9070008C9070008C9070008C907000840
:10006000C9070008C9070008C9070008C907000830
:10007000C9070008C9070008C9070008C907000820
:10008000C9070008C9070008C9070008C907000810
:10009000C9070008C9070008C9070008C907000800
:1000A000C9070008C9070008C9070008C9070008F0
:1000B000C9070008C9070008C9070008C9070008E0
:1000C000C9070008C9070008C9070008C9070008D0
:1000D000C9070008C9070008E50B0008C9070008A0
:1000E000C9070008C9070008C9070008C9070008B0
:1000F000C9070008C9070008C9070008C9070008A0
:10010000C9070008C9070008C9070008C90700088F
:10011000C9070008C9070008C9070008C90700087F
:10012000C9070008C9070008C9070008C90700086F
:10013000C90700080000000000000000C90700080F
:10014000C9070008C9070008C9070008C90700084F
:10015000C9070008C9070008C9070008C90700083F
:10016000C9070008C9070008C9070008C90700082F
:10017000C9070008C9070008C907000800000000F7
:1001800000000000C9070008000000000000000097
:10019000C90700080000000000000000C9070008AF
:1001A000000000000000000000000000C907000877
:1001B000C9070008C9070008C9070008C9070008DF
:0401C000C907000863
:1001D00010B5054C237833B9044B13B10448AFF381
:1001E00000800123237010BD6C000020000000007F
:1001F0005C2E000808B5034B1BB103490348AFF35D
:10020000008008BD00000000700000205C2E000887
:1002100001F0FF01102A2BDB10F0070F08D010F8B7
:10022000013B013A8B422DD010F0070F42B3F6D1BB
:10023000F0B441EA012141EA014122F007047FF0D4
:1002400000070023F0E80256083C85EA010586EA2B
:10025000010685FA47F5A3FA87F586FA47F6A5FA67
:1002600087F68EB9EED1F0BC01F0FF0102F0070273
:1002700032B110F8013B013A83EA010313B1F8D11E
:100280000020704701387047002D06BF35460338FF
:10029000073815F0010F07D1013015F4807F02BF38
:1002A000013015F4C03F0130F0BC0138704700BF89
:1002B00053B94AB9002908BF00281CBF4FF0FF31CD
:1002C0004FF0FF3000F07AB9ADF1080C6DE904CEC3
:1002D00000F006F8DDF804E0DDE9022304B0704721
:1002E0002DE9F0478C460D460446089E002B51D15F
:1002F0008A4217466DD9B2FA82FEBEF1000F0BD0CA
:10030000CEF1200C01FA0EF520FA0CFC02FA0EF7E1
:100310004CEA050C00FA0EF44FEA174A250CBCFB18
:10032000FAF81FFA87F90AFB18CC45EA0C4508FBD6
:1003300009F3AB420AD9ED1908F1FF3280F02381AD
:10034000AB4240F22081A8F102083D44ED1AA4B26C
:10035000B5FBFAF00AFB105544EA054400FB09F925
:10036000A14509D9E41900F1FF3380F00A81A145C4
:1003700040F2078102383C44A4EB090440EA0840FB
:100380000021002E61D024FA0EF400233460736043
:10039000BDE8F0878B4207D9002E54D0002186E8B3
:1003A00021000846BDE8F087B3FA83F1002940F048
:1003B0008E80AB4202D3824200F2FA80841A65EB4F
:1003C00003050120AC46002E3FD086E81010BDE8A2
:1003D000F08712B90127B7FBF2F7B7FA87FEBEF133
:1003E000000F34D1EB1B3A0C1FFA87FC0121B3FB41
:1003F000F2F8250C02FB183345EA03450CFB08F321
:10040000AB4207D9ED1908F1FF3002D2AB4200F23E
:10041000D1808046ED1AA3B2B5FBF2F002FB105575
:1004200043EA05440CFB00FCA44507D9E41900F19C
:10043000FF3302D2A44500F2B8801846A4EB0C04A6
:1004400040EA08409DE731463046BDE8F087CEF1EE
:10045000200405FA0EF307FA0EF720FA04F83A0C16
:1004600025FA04F448EA0308B4FBF2F14FEA184510
:1004700002FB11441FFA87FC45EA044501FB0CF31B
:10048000AB4200FA0EF409D9ED1901F1FF3080F00A
:100490008A80AB4240F2878002393D44EB1A1FFA52
:1004A00088F5B3FBF2F002FB103345EA034500FB8D
:1004B0000CF3AB4207D9ED1900F1FF386FD2AB4214
:1004C0006DD902383D44EB1A40EA01418FE7C1F192
:1004D000200722FA07F88B4005FA01F448EA0303E3
:1004E00020FA07FE4FEA134CFD404EEA040EB5FB1E
:1004F000FCF94FEA1E440CFB19551FFA83F844EA35
:10050000054509FB08F4AC4202FA01F200FA01FACF
:1005100008D9ED1809F1FF3043D2AC4241D9A9F115
:1005200002091D442D1B1FFA8EFEB5FBFCF00CFBCF
:1005300010554EEA054400FB08F8A04507D9E41819
:1005400000F1FF3529D2A04527D902381C4440EAE2
:100550000940A4EB0804A0FB02894C45C6464D4661
:1005600015D312D056B1BAEB0E0364EB050404FAAE
:1005700007F7CB401F43CC40376074600021BDE8D3
:10058000F0871846F8E69046E0E6C245EAD2B8EBB6
:10059000020E69EB03050138E4E72846D7E7404639
:1005A00091E78146BEE7014678E702383C4445E7DB
:1005B000084608E7A8F102083D442BE7704700BF52
:1005C00008B54FF4E131002000F0CCF908BD00007F
:1005D00010B5002408E0002000F068F94FF47A70AC
:1005E00000FB04F000F04EFB002000F023FA00288E
:1005F000F1D0002000F062FA02460349002000F02A
:100600007DFA0446E7E700BF742E000800B595B0F8
:1006100000220092274B196C41F0805119641B6C29
:1006200003F080530093009B019223490B6823F44D
:10063000404343F480430B600B6803F44043019351
:10064000019B0223079301210A9110210B910D9325
:100650000E920F914FF4A8721092042211921293ED
:10066000139307A801F06AF800B1FEE70F23029385
:1006700002210391002304934FF4805205920693C4
:1006800002A800F0B9FC00B1FEE700F061FD0B4BE1
:10069000A3FB0030800900F08BFB042000F09EFBE0
:1006A000002211464FF0FF3000F044FB15B05DF81A
:1006B00004FB00BF0038024000700040D34D6210C0
:1006C00000B585B000F0E4FAFFF7A0FF0022009229
:1006D000154B196B41F004011963196B01F004010A
:1006E000009100990192196B41F080011963196B17
:1006F00001F08001019101990292196B41F0010111
:100700001963196B01F001010291029903921A6BAE
:1007100042F002021A631B6B03F002030393039B74
:1007200005B05DF804FB00BF003802400F49D1F866
:10073000883043F47003C1F888300D4B1A6842F0DA
:1007400001021A60002098601A6822F0847222F474
:1007500080321A60074A5A601A6822F480221A60AE
:10076000D8604FF000638B60704700BF00ED00E081
:100770000038024010300024DFF834D0002103E0BC
:100780000C4B5B58435004310B480C4B42189A42B7
:10079000F6D30B4A02E0002342F8043B094B9A428D
:1007A000F9D3FFF7C3FF01F003FF01F0E5FE704747
:1007B00000000220DC2E0008000000206C00002059
:1007C0006C00002028020020FEE708B500F07AFA4D
:1007D00000F015FB08BD0023036043608260C16028
:1007E00009B101207047836018467047C368B3B1F0
:1007F000F0B4002407E04668B34212D0C6680F5D2B
:10080000775503600134944206D205686B1C8668F4
:10081000B342F0D10023EEE70120F0BC7047002086
:1008200070470020F9E7C368C3B10023934219D28F
:1008300070B409E00668B44212D0C668345DCC5486
:1008400045600133934206D24468651C8668B54210
:10085000F0D10025EEE7012070BC70470020704702
:100860000020F9E70120704782680368134440685C
:100870001B1AB3FBF2F002FB103070470023036039
:100880004360704700B587B00123029303930223AE
:10089000049306A9202341F8143D034800F0C6FA4A
:1008A00007B05DF804FB00BF0000024008B520213E
:1008B000014800F09DFB08BD0000024008B56C2314
:1008C0000A4A03FB00235B7A012B00D008BD6C238E
:1008D00003FB00F000F1080111442830104401220C
:1008E0000231043001F02EFDF0E700BF940000203B
:1008F0006C23104A03FB00235B7A012B00D0704766
:1009000070B504466C2505FB00F606F10801154696
:10091000114406F118001044012202310430FFF79F
:1009200065FF3544002385F864302046FFF7C6FF95
:1009300070BD00BF94000020002303B1704710B4C5
:10094000074C6C2202FB03F2A0180021A154417253
:1009500001720133DBB2002BF2D05DF8044B70471B
:10096000940000202DE9F0478A46074660B101282F
:1009700045D002284AD003280CD16C23274A03FB18
:100980000023274ADA6205E06C23244A03FB002394
:10099000244ADA62DFF884906C2505FB07F509EB41
:1009A0000504C4F830A04FF00008C4F83480C4F83F
:1009B0003880C4F83C80C4F844800C23236405F1DB
:1009C00028064E440436304601F038FC304601F02B
:1009D00005FC05F1180048441022134901EB0721DA
:1009E0000430FFF7F8FE01236372C4F804A009F88D
:1009F00005303846FFF762FF4046BDE8F0876C23BC
:100A0000064A03FB0023094ADA62C3E76C23034A60
:100A100003FB0023064ADA62BCE700BF9400002013
:100A20000050004000440040000100200048004009
:100A3000004C0040012801D90020704708B56C2304
:100A400003FB00F01830034B18440430FFF70CFF91
:100A500008BD00BF9400002008B56C23074A03FBC3
:100A600000235B7A012B00D008BD6C2303FB00F050
:100A7000183010440430FFF701FFF5E79400002020
:100A800038B56C230C4D03FB00535B7A012B01D06E
:100A9000002038BD14466C2303FB00F028302844A6
:100AA0004FF47A7392B2043001F0DBFB08B92046B0
:100AB00038BD002038BD00BF9400002000B583B0D1
:100AC00000238DF807306C230B4A03FB00235B7A6D
:100AD000012B04D09DF8070003B05DF804FB6C23E4
:100AE00003FB00F01830104401220DF1070104301F
:100AF000FFF799FEEEE700BF940000200EB410B59A
:100B0000C3B0044645AB53F8042B4193FF2101A821
:100B100001F09EFD024601A92046FFF7B1FF43B058
:100B2000BDE8104003B0704710B50446FFF794FFCE
:100B30002046FFF7C3FE10BD08B503680E4A934276
:100B400009D00E4A93420AD00D4A93420BD00D4A67
:100B500093420CD008BD0020FFF7CAFE08BD01205B
:100B6000FFF7C6FE08BD0220FFF7C2FE08BD032046
:100B7000FFF7BEFEEEE700BF004400400048004023
:100B8000004C00400050004010B5044601F056FBF8
:100B9000204601F023FB23680E4A934209D00E4AF7
:100BA00093420AD00D4A93420BD00D4A93420CD087
:100BB00010BD0020FFF7B8FF10BD0120FFF7B4FF04
:100BC00010BD0220FFF7B0FF10BD0320FFF7ACFF00
:100BD000EEE700BF0044004000480040004C0040E9
:100BE0000050004008B5024801F02EFC08BD00BFCF
:100BF000C000002002681D4B9A4200D0704770B5BB
:100C000088B00024019403F5FA331A6B42F0010214
:100C10001A631A6B02F001020192019A02941A6C93
:100C200042F400321A641B6C03F400330293029BFB
:100C300004230393022304930125059506930C4E88
:100C400003A9304600F0F2F808230393049403A9A3
:100C5000304600F0EBF82A462146262000F06AF8DC
:100C6000262000F099F808B070BD00BF0044004095
:100C70000000024008B5FFF723FDFFF75DFEFFF718
:100C800001FE08BD08B500F02FF808BD7047000050
:100C900008B50B4B1A6842F400721A601A6842F4E5
:100CA00080621A601A6842F480721A60032000F0B1
:100CB0002FF80F2000F0DCFFFFF7E8FF002008BD51
:100CC000003C0240034A1168034B1B780B4413603D
:100CD000704700BF0002002004000020014B18688C
:100CE000704700BF0002002038B50446FFF7F6FF4A
:100CF0000546B4F1FF3F02D0044B1B781C44FFF7BC
:100D0000EDFF401B8442FAD838BD00BF040000202C
:100D1000074AD36823F4E0631B041B0C000200F4B1
:100D2000E060184340F0BF6040F40030D06070478E
:100D300000ED00E030B4164BDB68C3F30223C3F1CF
:100D40000704042C28BF04241D1D062D17D9033BBE
:100D5000012505FA04F4013C2140994005FA03F30A
:100D6000013B1340194300280BDB0901C9B200F114
:100D7000604000F5614080F8001330BC70470023EC
:100D8000E6E700F00F000901C9B2024B1954F4E77D
:100D900000ED00E014ED00E0420900F01F00012327
:100DA00003FA00F0014B43F82200704700E100E035
:100DB0000138B0F1807F0AD2064B5860F021064A14
:100DC00082F823100020986007221A6070470120E3
:100DD000704700BF10E000E000ED00E0042805D0FF
:100DE000054A136823F0040313607047024A13682E
:100DF00043F004031360704710E000E0704708B54B
:100E0000FFF7FCFF08BD90F83530DBB2022B03D0B2
:100E10008023436501207047052380F83530026840
:100E2000136823F00103136000207047F0B583B00E
:100E3000002498E04FEAD40E0EF1080E50F82E2050
:100E400004F00706B6000F27B74022EA07020F6931
:100E500007FA06F6324340F82E2094E086681640E2
:100E6000CF6807FA0EF73E438660466826EA03031A
:100E70004E68C6F30016A64033434360C3681A4069
:100E80008B6803FA0EF31A43C2604B6813F0805F5D
:100E900068D000230193514B5A6C42F480425A644B
:100EA0005B6C03F480430193019BA3089E1C4C4A96
:100EB00052F8262004F003064FEA860E0F2606FAA3
:100EC0000EF622EA0602474FB84279D0464EB042AB
:100ED00078D006F58066B04276D006F58066B042DE
:100EE00074D006F58066B04272D006F58066B042D6
:100EF00070D006F58066B04260D0072606FA0EF67E
:100F000032430233364E46F82320384B1A68EB43FF
:100F100002EA03064F6817F4803F01D045EA020653
:100F2000324A1660526803EA02064F6817F4003F1F
:100F300001D045EA02062D4A5660926803EA02068D
:100F40004F6817F4801F01D045EA0206274A9660D1
:100F5000D26813404E6816F4001F01D045EA020320
:100F6000224AD36001340F2C36D80123A3400A68EB
:100F700003EA0205AB42F5D14A68022A3FF45AAFB0
:100F8000122A3FF457AF06684FEA440E032202FAD2
:100F90000EF2D24316404F6807F0030707FA0EF728
:100FA0003E4306604E68771E012F7FF657AF112E25
:100FB0003FF454AF122E7FF461AF4FE706269DE752
:100FC00000269BE7012699E7022697E7032695E787
:100FD000042693E7052691E703B0F0BD00380240F0
:100FE000003801400000024000040240003C014083
:100FF0004369594041617047002800F09D8070B5F9
:1010000004464F4B1B6803F00F038B4209D2CBB24F
:101010004B4A1370136803F00F03994201D001206B
:1010200070BD236813F0020F17D013F0040F04D023
:10103000444A936843F4E0539360236813F0080F25
:1010400004D0404A936843F4604393603D4A9368F8
:1010500023F0F003A068034393600D46236813F068
:10106000010F32D06368012B21D09A1E012A25D9A5
:10107000344A126812F0020F60D032498A6822F0B6
:10108000030213438B60FFF729FE06462D4B9B6836
:1010900003F00C036268B3EB820F16D0FFF71EFE5D
:1010A000801B41F288339842F0D9032070BD254A55
:1010B000126812F4003FE0D1012070BD214A12688D
:1010C00012F0007FD9D1012070BD1D4B1B6803F0C9
:1010D0000F039D4209D2EAB2194B1A701B6803F044
:1010E0000F039D4201D0012070BD236813F0040F4F
:1010F00006D0144A936823F4E053E1680B439360ED
:10110000236813F0080F07D00E4A936823F4604356
:10111000216943EAC103936000F080FA094B9B68A0
:10112000C3F30313084AD35CD840084B18600F2060
:1011300000F09EFD002070BD01207047012070BDB1
:10114000003C024000380240802E000800000020D1
:10115000014B1868704700BF0000002008B5FFF77A
:10116000F7FF044B9B68C3F38223034AD35CD84048
:1011700008BD00BF00380240902E000808B5FFF7F8
:10118000E7FF044B9B68C3F34233034AD35CD84068
:1011900008BD00BF00380240902E0008F0B583B0B3
:1011A0000446036813F0010F0CD0974AD2F88C3034
:1011B00023F0C063816B0B43C2F88C30836B3BB36D
:1011C000002700E00027236813F0020F0BD08E4A9F
:1011D000D2F88C3023F0C053E16B0B43C2F88C3053
:1011E000E36B03B90127236813F0040F14D0864A78
:1011F000D2F88C3023F44013216B0B43C2F88C30AF
:10120000236BB3F5801F05D0002B7BD0002504E0B5
:101210000127D8E70127F7E70025236813F0080F17
:101220000ED0794AD2F88C3023F44003616B0B4323
:10123000C2F88C30636BB3F5800F65D003B901251C
:10124000236813F0200F61D1236813F0100F03D02F
:1012500094F858206D4B1A60236813F0800F08D063
:10126000694AD2F8943023F44003E16C0B43C2F88E
:101270009430236813F0400F08D0634AD2F89430BA
:1012800023F08063A16C0B43C2F89430236813F4FD
:10129000807F0DD05C4AD2F8943023F00063616DFA
:1012A0000B43C2F89430636DB3F1006F00F095808A
:1012B000236813F4007F08D0534AD2F8943023F007
:1012C0008053616C0B43C2F89430236813F4806F31
:1012D0000CD04D4AD2F8943023F00053216D0B43CB
:1012E000C2F89430236DB3F1005F78D0002F78D12D
:1012F0002368B3F5006F74D0002D40F025810020E5
:1013000003B0F0BD012588E7012797E7002301938B
:101310003D4B1A6C42F080521A641B6C03F08053F0
:101320000193019B3A4A136843F480731360FFF7FB
:10133000D5FC0646364B1B6813F4807F06D1FFF7B9
:10134000CDFC801B0228F5D90320D9E72E4B1B6F5B
:1013500013F4407312D0226C02F4407293420DD009
:10136000294B1A6F22F440722A490120086000209C
:1013700008601A671B6F13F0010F12D1236C03F47E
:101380004072B2F5407F1DD01F4A936823F4F813D2
:1013900093601D490B6F226CC2F30B0213430B6762
:1013A00052E7FFF79BFC0646174B1B6F13F0020F2B
:1013B000E4D1FFF793FC801B41F288339842F3D9C4
:1013C00003209DE710498A6822F4F81223F0704345
:1013D00023F4407313438B60DBE7012568E70127A3
:1013E00084E700220C4B1A60FFF778FC0646064B98
:1013F0001B6813F0006F11D0FFF770FC801B0228F0
:10140000F5D903207CE700BF00380240E0114742D5
:1014100000700040400E474268004742236813F0C6
:10142000010F01D0A26B22B113F0020F15D0E36BB4
:101430009BB9774AD2F88400D2F884106368A66812
:1014400043EA861300F44030034301F070610B431C
:10145000616943EA0173C2F88430236813F0040F12
:1014600003D0226BB2F5801F37D013F0080F03D0E2
:10147000636BB3F5800F30D0236813F4806F03D013
:10148000236DB3F1005F46D0236813F4006F11D0D1
:101490006368A26843EA8213E2685208013A43EAA9
:1014A0000243226943EA0263626943EA0273584ACB
:1014B000C2F884300122574B1A60FFF70FFC064632
:1014C000534B1B6813F0006F7FF416AFFFF706FC59
:1014D000801B0228F4D9032012E74D4AD2F8840079
:1014E000D2F884106368A66843EA861300F440309B
:1014F0000343206943EA006301F0E0410B43C2F873
:101500008430D2F88C3023F01F03A16A01390B43D9
:10151000C2F88C30B0E73E48D0F88430C3F30143C2
:101520005A1CD0F884606368A16843EA8113E168BB
:101530004908013943EA014343EA426306F0E042C5
:101540001343C0F884309FE70022334B1A60FFF743
:10155000C5FB05462E4B1B6813F0005F06D0FFF756
:10156000BDFB401B0228F5D90320C9E6236813F010
:10157000040F01D0226B22B113F0080F1AD0636B55
:10158000C3B9234AD2F88810A369E06943EA8013FB
:1015900001F440310B43616A43EA0163C2F88830C9
:1015A000D2F88C3023F4F853E16A013943EA01237D
:1015B000C2F88C30236813F4807F03D0636DB3F1DD
:1015C000006F11D00122144B1A60FFF787FB04460D
:1015D0000F4B1B6813F0005F18D1FFF77FFB001B58
:1015E0000228F5D903208BE60948D0F88810A369B2
:1015F000E26943EA8213226A5208013A43EA02434B
:1016000001F070621343C0F88830DBE7002077E612
:10161000003802406800474270004742F8B5444B2A
:101620009B6803F00C03082B05D00C2B41D0042B36
:101630007BD04048F8BD3E4B5A6802F03F025B68E1
:1016400013F4800F12D03A4B5968C1F3881100236C
:101650003948A1FB0001FEF72BFE354B5B68C3F355
:10166000014301335B00B0FBF3F0F8BD304B5B6826
:10167000C3F388131E4600275C010025E41A65EBBE
:101680000705A90141EA9461A001001B61EB050176
:10169000CB0043EA5073C400A01943EB07018B024F
:1016A00043EA90538402204619460023FEF700FEC9
:1016B000D3E71F4B5A6802F03F025B6813F4800FB8
:1016C00010D01B4B5968C1F3881100231A48A1FBA5
:1016D0000001FEF7EDFD164B5B68C3F30273B0FB30
:1016E000F3F0F8BD124B5B68C3F388131E46002766
:1016F0005C010025E41A65EB0705A90141EA946144
:10170000A001001B61EB0501CB0043EA5073C4004C
:10171000A01943EB07018B0243EA90538402204651
:1017200019460023FEF7C4FDD5E70348F8BD00BF06
:10173000003802400024F40040787D0170B582B08A
:101740000446036813F0010F41D0A64B9B6803F0D9
:101750000C03042B32D0A34B9B6803F00C03082B23
:1017600027D0A04B9B6803F00C030C2B59D0636867
:10177000B3F5803F5BD0B3F5A02F5ED0994B1A68CC
:1017800022F480321A601A6822F480221A60636898
:10179000002B5CD0FFF7A2FA0546924B1B6813F4AE
:1017A000003F14D1FFF79AFA401B6428F5D90320B3
:1017B0009DE18C4B5B6813F4800FD2D0894B1B6882
:1017C00013F4003F03D06368002B00F08D81236881
:1017D00013F0020F67D0834B9B6813F00C0F4AD0B5
:1017E000804B9B6803F00C03082B3FD07D4B9B681C
:1017F00003F00C030C2B48D0E368002B74D00122BB
:10180000794B1A60FFF76AFA0546764B1B6813F0AE
:10181000020F60D1FFF762FA401B0228F5D90320BE
:1018200065E1704B5B6813F4800FA0D0C6E76D4A8A
:10183000136843F480331360A9E76A4B1A6842F4D3
:1018400080221A601A6842F480321A609FE7FFF71C
:1018500045FA0546634B1B6813F4003FB7D0FFF70A
:101860003DFA401B6428F5D9032040E15D4B5B68DD
:1018700013F4800FBAD15B4B1B6813F0020F0AD030
:10188000E368012B07D0012031E1564B5B6813F46C
:10189000800FB1D1EFE7534A136823F0F8032169B1
:1018A00043EAC1031360236813F0080F40D0636953
:1018B00063B301224D4B1A60FFF710FA0546494BFE
:1018C0005B6F13F0020F33D1FFF708FA401B0228B9
:1018D000F5D903200BE1434A136823F0F80321698B
:1018E00043EAC1031360DEE700223F4B1A60FFF7B3
:1018F000F5F905463B4B1B6813F0020FD3D0FFF7F9
:10190000EDF9401B0228F5D90320F0E00022374B07
:101910001A60FFF7E3F90546324B5B6F13F0020FD5
:1019200006D0FFF7DBF9401B0228F5D90320DEE0E3
:10193000236813F0040F79D02A4B1B6C13F0805FDF
:1019400033D100230193274B1A6C42F080521A6462
:101950001B6C03F080530193019B0125244B1B68F2
:1019600013F4807F23D0A368012B34D0052B41D002
:101970001C4B1A6F22F001021A671A6F22F0040240
:101980001A67A368002B3FD0FFF7A8F90646154B4E
:101990001B6F13F0020F48D1FFF7A0F9801B41F233
:1019A00088339842F3D90320A1E00025D6E7104AF6
:1019B000136843F480731360FFF790F906460C4BED
:1019C0001B6813F4807FCED1FFF788F9801B0228B3
:1019D000F5D903208BE0034A136F43F0010313672B
:1019E000CFE700BF0038024000004742800E474268
:1019F00000700040404B1A6F42F004021A671A6FE1
:101A000042F001021A67BCE7FFF768F906463A4B55
:101A10001B6F13F0020F08D0FFF760F9801B41F233
:101A200088339842F3D9032061E0E5B9A369002B1C
:101A30005CD0314A926802F00C02082A59D0022B7D
:101A400017D000222D4B1A60FFF748F904462A4BA5
:101A50001B6813F0007F45D0FFF740F9001B0228F8
:101A6000F5D9032043E0244A136C23F08053136418
:101A7000DCE70022214B1A60FFF730F905461E4BC8
:101A80001B6813F0007F06D0FFF728F9401B0228DF
:101A9000F5D903202BE0E369226A1343626A43EA23
:101AA0008213A26A5208013A43EA0243E26A43EA15
:101AB0000263226B43EA02730F4A536001220F4B09
:101AC0001A60FFF70BF904460B4B1B6813F0007FFD
:101AD00006D1FFF703F9001B0228F5D9032006E021
:101AE000002004E0002002E0012000E0002002B01D
:101AF00070BD0120FBE700BF003802406000474294
:101B0000704738B504460268D36823F0A003D36059
:101B1000FFF7E4F805462368DB6813F0200F07D1D0
:101B2000FFF7DCF8401BB0F57A7FF4D9032038BD0D
:101B3000002038BD38B50368DA6812F0400F01D0D4
:101B4000002038BD04464FF0FF32DA60FFF7C6F8D8
:101B500005462368DB6813F0400F07D1FFF7BEF896
:101B6000401BB0F57A7FF4D9032038BD002038BD82
:101B700038B500285CD00446437F002B41D00223B7
:101B800063772368CA225A62236853225A62204626
:101B9000FFF7D0FF0546002837D12268936823F469
:101BA000E00323F04003936021688A68636820693A
:101BB00003436069034313438B602368E2681A613F
:101BC00022681369A16843EA014313612268D3685C
:101BD00023F08003D36023689B6813F0200F1BD091
:101BE0002268136C23F4802313642268136CA169A8
:101BF0000B4313642368FF225A620123637728464C
:101C000038BD0377FFF77CFFB9E72368FF225A62EC
:101C1000042363770125F2E72046FFF772FF0028CF
:101C2000DED02368FF225A62042363770125E6E7AA
:101C30000125E4E710B504460368DA6812F4806F02
:101C400003D09B6813F4804F06D14FF48002074BFA
:101C50005A610123637710BD00F09CF82268D368B5
:101C6000DBB263F49063D360EFE700BF003C014058
:101C700070B5A6B0054600232593012218921E9345
:101C80004FF4803319933B4B119318A8FFF756FD7F
:101C900018B10124204626B070BD26A8202340F8A4
:101CA000943DFFF77BFA044608B10124F2E70122D4
:101CB000314B1A60314E324B336000237360632224
:101CC000B2600922F26033617361B3613046FFF79D
:101CD0004FFF3068CA23436253234362836823F46F
:101CE00080638360836823F480438360C36813F058
:101CF000040F0CD1259A531C2593224B1B682249B3
:101D0000A1FB0313B2EB531FF0D10124C2E71F4A1A
:101D1000136843F00403136018480368DA68D2B20A
:101D200062F49062DA6000225A61996821F007013A
:101D30009960996841F004019960154B196841F464
:101D400080011960996841F480019960036899687D
:101D500041F480419960996841F480619960FF2164
:101D6000596229460320FEF7E5FF0320FFF714F828
:101D700090E700BF000319003C0E47420402002018
:101D80000028004000000020ABAAAAAA0070004072
:101D9000003C014008B5FEF795FF08BD08B50248B4
:101DA000FFF748FF08BD00BF040200200268D368A7
:101DB00023F49073D3600268536923F001035361E5
:101DC000202380F83A30704790F83930DBB2212B6D
:101DD00001D0022070478368B3F5805F17D0026896
:101DE000036A591C01621B785360C38C9BB2013B90
:101DF0009BB2C384DBB90268D36823F08003D3604D
:101E00000268D36843F04003D36000207047036A40
:101E100002681B88C3F30803536003691BB9036A94
:101E200002330362E1E7036A01330362DDE7002066
:101E3000704700002DE9F04704460268136923F457
:101E40004053C1680B4313610168CB6823F4164308
:101E500023F00C0382680069024360690243E06971
:101E600002431343CB602268536923F44073A16992
:101E70000B435361E369B3F5004F62D0D4F800809F
:101E8000BB4B984500F01B8103F58063984500F03B
:101E90001681FFF763F900EB800000EB80006568B6
:101EA000AD00B0FBF5F5B34FA7FB05356D092E016D
:101EB000FFF754F900EB800000EB80006568AD008F
:101EC000B0FBF5FAFFF74AF900EB800000EB800069
:101ED0006568AD00B0FBF5F5A7FB05356D094FF062
:101EE000640909FB15A52D013235A7FB05356D09E0
:101EF00005F0F0053544FFF731F900EB800000EB09
:101F000080006668B600B0FBF6F6FFF727F900EB35
:101F1000800000EB800063689B00B0FBF3F0A7FB40
:101F20000030400909FB10694FEA091909F132092B
:101F3000A7FB0937C7F343172F44C8F80870BDE85B
:101F4000F087D4F8008003F1804303F510439845EF
:101F50005CD003F58063984558D0FFF7FFF800EB9D
:101F6000800000EB800065686D00B0FBF5F5814FE7
:101F7000A7FB05356D092E01FFF7F0F800EB800097
:101F800000EB800065686D00B0FBF5FAFFF7E6F83E
:101F900000EB800000EB800065686D00B0FBF5F59C
:101FA000A7FB05356D094FF0640909FB15A5ED0088
:101FB0003235A7FB05356D096D0005F4F87535441C
:101FC000FFF7CCF800EB800000EB8000666876003D
:101FD000B0FBF6F6FFF7C2F800EB800000EB8000E4
:101FE00063685B00B0FBF3F3A7FB03235B0909FB0A
:101FF00013694FEAC90909F13209A7FB0937C7F389
:1020000042172F44C8F80870BDE8F087FFF7B6F80C
:1020100000EB800000EB800065686D00B0FBF5F51B
:10202000544FA7FB05356D092E01FFF7A7F800EB0C
:10203000800000EB800065686D00B0FBF5FAFFF7EB
:102040009DF800EB800000EB800065686D00B0FB40
:10205000F5F5A7FB05356D094FF0640909FB15A5DA
:10206000ED003235A7FB05356D096D0005F4F875F7
:102070003544FFF783F800EB800000EB80006668D2
:102080007600B0FBF6F6FFF779F800EB800000EB86
:10209000800063685B00B0FBF3F3A7FB03235B09DD
:1020A00009FB13694FEAC90909F13209A7FB09378E
:1020B000C7F342172F44C8F80870BDE8F087FFF750
:1020C0005DF800EB800000EB80006568AD00B0FBC0
:1020D000F5F5284FA7FB05356D092E01FFF74EF8E2
:1020E00000EB800000EB80006568AD00B0FBF5FA06
:1020F000FFF744F800EB800000EB80006568AD005E
:10210000B0FBF5F5A7FB05356D094FF0640909FB38
:1021100015A52D013235A7FB05356D0905F0F00534
:102120003544FFF72BF800EB800000EB8000666879
:10213000B600B0FBF6F6FFF721F800EB800000EBED
:10214000800063689B00B0FBF3F3A7FB03235B09EC
:1021500009FB13694FEA091909F13209A7FB09378D
:10216000C7F343172F44C8F80870BDE8F08700BFD5
:10217000001001401F85EB512DE9F04105460F4647
:1021800016469846069C2B681B6837EA03030CBF6B
:1021900001230023B3421ED1B4F1FF3FF3D02CB191
:1021A000FEF79CFDA0EB08008442ECD22A68D368BD
:1021B00023F4D073D3602A68536923F00103536179
:1021C000202385F8393085F83A30002385F83830F7
:1021D0000320BDE8F0810020BDE8F08158B310B5C0
:1021E000044690F839300BB3242384F83930226840
:1021F000D36823F40053D3602046FFF71BFE226808
:10220000136923F4904313612268536923F02A036E
:1022100053612268D36843F40053D3600020E06325
:10222000202384F8393084F83A3010BD80F83830F3
:10223000FEF7E0FCD8E701207047704778B110B591
:102240000446242380F83930FFF7F7FF0020E063CD
:1022500084F8390084F83A0084F8380010BD012071
:1022600070472DE9F04182B01E4690F83930DBB25C
:10227000202B04D00223184602B0BDE8F0810446AA
:102280000D469046002955D0002A55D090F8383098
:10229000012B01D10223EEE7012380F8383000231F
:1022A000C363212380F83930FEF718FD0746A4F8F0
:1022B0002480A4F8268010E000963B46002280216E
:1022C0002046FFF759FF002838D122682B88C3F336
:1022D000080353602369CBB90235E38C9BB2BBB1D1
:1022E000E38C9BB2013B9BB2E384A368B3F5805FB0
:1022F000E2D000963B46002280212046FFF73CFFBB
:10230000F0B923682A785A600135E6E70135E4E739
:1023100000963B46002240212046FFF72DFF034652
:1023200008B10323A7E7202284F83920002284F88B
:102330003820A0E701239EE701239CE703239AE7C7
:10234000032398E790F83A30DBB2202B01D002202B
:102350007047D1B1DAB190F83830012B19D08162D1
:102360008285C2850023C363222280F83A2080F848
:10237000383001684A6942F001024A610168CA685E
:1023800042F49072CA6018467047012070470120DD
:10239000704702207047704708B50168CB6823F08A
:1023A0004003CB60202380F83930FFF7F4FF002092
:1023B00008BD08B590F83A30DBB2222B01D00220DC
:1023C00008BD8368B3F5805F0FD003690BBB836AD8
:1023D0005A1C8262026852681A70C38D9BB2013B1C
:1023E0009BB2C385F3B1002008BD826A036943B97B
:1023F00003685B68C3F308031380836A0233836254
:10240000EBE703685B68DBB21380836A01338362A6
:10241000E3E7826A531C836203685B6803F07F030F
:102420001370DAE70268D36823F49073D36002680C
:10243000536923F001035361202380F83A30FEF7FB
:102440007BFB002008BD000010B50446026813683D
:10245000D168526913F00F0005D113F0200F02D09C
:1024600011F0200F53D1002867D012F0010202D1E1
:1024700011F4907F61D013F0010F06D011F4807F2A
:1024800003D0E06B40F00100E06313F0040F04D0D0
:102490001AB1E06B40F00200E06313F0020F04D0C9
:1024A0001AB1E06B40F00400E06313F0080F04D0B1
:1024B0001AB1E26B42F00802E263E26B002A48D0F4
:1024C00013F0200F02D011F0200F24D123685B6994
:1024D00003F04003E26B12F0080F00D13BB320463B
:1024E000FFF764FC23685A6912F0400F1BD05A6949
:1024F00022F040025A61636B8BB11A4A1A65606B15
:10250000FEF781FC28B3606B036D984710BD204631
:10251000FFF74FFF10BD2046FFF74BFFD6E72046E1
:10252000FEF732FB10BD2046FEF72EFB10BD204605
:10253000FEF72AFB0023E36310BD13F0800F02D0E7
:1025400011F0800F06D113F0400F02D011F0400FB0
:1025500004D110BD2046FFF737FC10BD2046FFF721
:102560001BFFF6E76925000808B5806B0023C385CB
:10257000C384FEF709FB08BD08B5FEF77BFBFEF739
:102580001FF8FEF725F8002008BD00000346064AA4
:10259000126822B1044A106803441360704703496B
:1025A000014A1160F6E700BF8800002028020020E1
:1025B00070B50D4E0D4CA41BA4100025A54209D1E9
:1025C0000B4E0C4C00F04AFCA41BA4100025A542A5
:1025D00005D170BD56F8253098470135EEE756F81D
:1025E000253098470135F2E7D42E0008D42E000894
:1025F000D42E0008D82E000830B5141E05469BB016
:10260000184605DA8B232B604FF0FF301BB030BD2E
:102610004FF40273ADF80C3014BF04F1FF332346BE
:10262000029305934FF6FF7300910491ADF80E30BD
:1026300002461E9B6946284600F020F9431CBCBF99
:102640008B232B60002CE1D0009B00221A70DDE769
:1026500007B5009313460A46014603480068FFF792
:10266000CBFF03B05DF804FB0800002038B5054639
:10267000002945D051F8043C0C1F002BB8BFE418CA
:1026800000F0BBFB1F4A1368104633B96360146047
:102690002846BDE8384000F0B1BBA3420CD9216800
:1026A0006218934204BF1A685B68636004BF5218E3
:1026B00022600460ECE713465A680AB1A242FAD9D4
:1026C00019685818A0420BD120680144581882425A
:1026D0001960DDD1106852685A6001441960D7E76B
:1026E00002D90C232B60D3E7206821188A4204BF4B
:1026F00011685268626004BF091821605C60C7E716
:1027000038BD00BF8C00002070B5CD1C25F003053E
:1027100008350C2D38BF0C25002D064601DBA942DB
:1027200003D90C233360002070BD00F066FB234A00
:102730001468214691B9224C23681BB9304600F039
:1027400027FB20602946304600F022FB431C26D19F
:102750000C233360304600F051FBE4E70B685B1B51
:102760001AD40B2B0FD90B60CD50CC18304600F08B
:1027700045FB04F10B00231D20F00700C31A1BD0FA
:102780005A42E25070BD8C420DBF63684B68636073
:10279000136018BF0C46E9E70C464968CAE7C41C39
:1027A00024F00304A04205D0211A304600F0F0FACC
:1027B0000130CDD02560D9E770BD00BF8C0000206E
:1027C000900000202DE9F0478E689E4282460C461C
:1027D0009146984635D88A8912F4906F31D0256891
:1027E00009696F1A6569022305EB450595FBF3F549
:1027F00008F101033B449D4238BF1D46530531D5C6
:102800002946FFF781FF064650B90C23CAF800306D
:10281000A38943F04003A3814FF0FF30BDE8F08768
:102820003A46216900F0C4FAA38923F4906343F087
:102830008003A381266165613E44ED1B2660A5608F
:102840004646464528BF464632464946206800F07F
:10285000BAFAA3689B1BA36023681E44266000206D
:10286000BDE8F0872A4600F0CAFA06460028E1D102
:1028700021695046FFF7FAFEC7E700002DE9F04F47
:102880009DB0804603938B891C060D4616460FD5D6
:102890000B696BB94021FFF737FF2860286128B921
:1028A0000C23C8F800304FF0FF30C5E040236B61C7
:1028B0000023099320238DF8293030238DF82A3006
:1028C0004FF0010B37463C4614F8013B002B3CD13E
:1028D000B7EB060A0BD05346324629464046FFF76F
:1028E00071FF013000F0A380099B534409933B78AA
:1028F000002B00F09C8000234FF0FF3204930793DD
:10290000059206938DF853301A930522217850488A
:10291000FDF77EFC671C049BD8B9D90644BF202272
:102920008DF853201A0744BF2B228DF853202278AC
:102930002A2A16D0079A00210A20274601343B781C
:10294000303B092B51D9C9B111E0252BC0D0274606
:10295000B9E73F4A801A0BFA00F0184304903C464E
:10296000D3E7039A111D12680391002A01DB079235
:1029700004E0524243F00203079204933B782E2B6B
:102980000ED17B782A2B07F1010132D1039B1A1D4E
:102990001B680392002BB8BF4FF0FF33023705933B
:1029A0002C4C397803222046FDF732FC38B1402305
:1029B000001B03FA00F0049B0343049301373978AA
:1029C00025488DF8281006227E1CFDF721FC0028E2
:1029D00035D0224BFBB9039B073323F007030833A1
:1029E0000393099B4B4409936CE700FB02320121DE
:1029F000A3E70023059318460A240F4601313A78CD
:102A0000303A092A03D9002BCAD00590C8E704FB45
:102A100000200123F1E703AB00932A46104B04A9E1
:102A20004046AFF30080B0F1FF3F8146D9D1AB897A
:102A30005B063FF538AF09981DB0BDE8F08F03ABDA
:102A400000932A46064B04A9404600F081F8EAE7C5
:102A5000982E00089E2E0008A22E000800000000FC
:102A6000C52700082DE9F04791461F468A680B6983
:102A7000DDF820809342B8BF1346C9F8003091F8C2
:102A8000432006460C4612B10133C9F800302368D2
:102A9000990642BFD9F800300233C9F800302568E2
:102AA00015F0060507D104F1190AE368D9F80020EA
:102AB0009B1A9D4229DB94F843302268003318BFEB
:102AC000012392062ED404F1430239463046C04712
:102AD000013021D02368E568D9F8002003F006030F
:102AE000042B08BFAD1AA36822690CBF25EAE5755F
:102AF00000259342C4BF9B1AED184FF000091A3409
:102B00004D451BD10020BDE8F087012352463946D0
:102B10003046C047013003D14FF0FF30BDE8F087A9
:102B20000135C2E7E1185A1C302081F843002244E5
:102B300094F8451082F843100233C4E7012322467B
:102B400039463046C0470130E6D009F10109D7E7E0
:102B50002DE9F04317460A7E85B06E2A9846064650
:102B60000C460C9B01F1430E00F0BC801AD8632A7E
:102B70002ED00AD8002A00F0C880582A00F08A8097
:102B800004F1420584F842202AE0642A01D0692A2F
:102B9000F6D121681A6811F0800F23D0111D196039
:102BA000136827E0732A00F0B48008D86F2A2AD06F
:102BB000702AE5D10A6842F020020A6003E0752A13
:102BC00021D0782ADCD1782284F845206E4964E04F
:102BD0001A6801F14205111D1960136884F842302A
:102BE0000123A3E011F0400F02F104011960D7D0D6
:102BF000B2F90030002B03DA2D225B4284F8432027
:102C000062490A2217E02068196810F0800F03D08B
:102C1000081D18600B6806E010F0400F01F1040079
:102C20001860F7D00B8859496F2A14BF0A2208226E
:102C3000002084F843006568A560002DC0F29C80E8
:102C4000206820F004002060002B3FD1002D40F0D0
:102C500095807546082A0BD12368DA0708D52369C1
:102C600062689A42DEBF302305F8013C05F1FF356A
:102C7000AEEB05032361CDF800803B4603AA214655
:102C80003046FFF7EFFE013055D14FF0FF3005B071
:102C9000BDE8F08381F845203C492268186812F0AD
:102CA000800F00F104051D6001D0036802E05506A5
:102CB000FBD50388D00744BF42F0200222601BB935
:102CC000226822F0200222601022B1E77546B3FB91
:102CD000F2F002FB1033CB5C05F8013D03460028FF
:102CE000F5D1B7E708681A68496910F0800F04D079
:102CF000101D18601368196007E010F0400F02F112
:102D0000040018601368F6D019800023236175460B
:102D1000B1E71A68111D196015686268002128461C
:102D2000FDF776FA08B1401B6060636823610023F9
:102D300084F843309FE723692A4639463046C04726
:102D40000130A2D023689B0707D5002504F119099B
:102D5000E368039A9B1A9D4205DBE068039B984257
:102D6000B8BF184693E701234A4639463046C04764
:102D700001308AD00135EBE7002BA7D10B7884F81E
:102D8000423004F1420565E7BA2E0008A92E00087A
:102D900038B5064C0023054608462360FFF7F6FBCE
:102DA000431C02D1236803B12B6038BD24020020EC
:102DB00010B5431E0A44914200D110BD11F8014BD9
:102DC00003F8014FF7E7884210B501EB020303D87F
:102DD000421E99420CD110BD9842F9D28118D21AE4
:102DE000D34200D110BD13F8014D01F8014DF7E7B2
:102DF00011F8014B02F8014FEBE770477047F8B547
:102E0000074614460E4621B91146BDE8F840FFF7C3
:102E10007BBC22B9FFF72AFC25462846F8BD00F006
:102E200014F884420FD921463846FFF76DFC054659
:102E30000028F2D031462246FFF7BAFF3146384625
:102E4000FFF714FCE9E73546E7E751F8040C0028E2
:102E5000A0F10400BCBF0B58C0187047F8B500BF04
:102E6000F8BC08BC9E467047F8B500BFF8BC08BC6B
:042E70009E467047C3
:102E74007278203D20307825580A000000000000B8
:102E84000000000001020304060708090000000016
:102E940001020304232D302B2000686C4C0065666E
:102EA4006745464700303132333435363738394197
:102EB40042434445460030313233343536373839AD
:082EC4006162636465660000B1
:082ECC0014D4FF7F0100000097
:042ED400F5010008FC
:042ED800D10100081C
:102EDC000024F400010000000C00002000000000A1
:102EEC0000000000000000000000000000000000D6
:102EFC0000000000000000000000000000000000C6
:102F0C0000000000000000000000000000000000B5
:102F1C0000000000000000000000000000000000A5
:102F2C000000000000000000000000000000000095
:0C2F3C0000000000000000000000000089
:04000005080007796F
:00000001FF
